:10000000FB2900308A000408840A8207003478340F
:100010002D3449344D34553433342D345334413434
:100020002D34413432342034763431342E3431346A
:080030002E3432340A3400348E
:10004400C0004008DB0047200800C0004008B000A2
:100054006300301008009F149F18312832282E287E
:100064001E080800C1003E28410884000120222007
:100074000130FF007F08C107410884000120003AD5
:10008400031D4528462836280800DB000A30DA001C
:10009400871053280708FD395B18023887000314BA
:1000A400DB0C0830D900D90B5528DA0B4C28080092
:1000B400CC01CD01481C5F28602866284A08CC077B
:1000C4000318CD0A4B08CD0701300310CA0DCB0D20
:1000D400FF3E031D672801300310C90CC80CFF3E06
:1000E400031D6E2848084904031D79287A285C28D2
:1000F4004D08C9004C08C8000800703090048810EE
:10010400861087149D171D08FC3902389D001F08AE
:100114001F39A0389F001F141330272001303420CA
:100124001C309F04013027202D20D800E3309F0588
:10013400013027202D20D6001F08E33908389F00FE
:10014400013027202D20D7005808CE00560836212C
:100154002C3022205808CE00570836210A3022209D
:100164000130272005302720922800284008410428
:100174000319BD28BE28ED28C401C40ACC280130C7
:100184000310C00DC10DFF3E031DC2280130FF0046
:100194007F08C407C11FCF28D028C12841084302C3
:1001A400031DD62840084202031CD928DA28E02877
:1001B4004008C2024108031CC303C30201300310F8
:1001C400C10CC00CFF3E031DE1280130C402031D15
:1001D400EC28ED28D0284308C1004208C0000800DC
:1001E400C401C501400841040319F928FA2831293A
:1001F400C601C60A082901300310C00DC10DFF3E17
:10020400031DFE280130FF007F08C607C11F0B290C
:100214000C29FD2801300310C40DC50DFF3E031D3C
:100224000D2941084302031D192940084202031CF9
:100234001C291D2924294008C2024108031CC303A8
:10024400C302441401300310C10CC00CFF3E031D53
:1002540025290130C602031D302931290C294508FE
:10026400C1004408C0000800D3005308CF00D001E7
:100274004F08C8005008C9000030C2005030C30005
:100284004E08D100D2015108C0005208C100942187
:100294004108CB004008CA005A204908D500480844
:1002A400D4001030C0002730C1005508C3005408E2
:1002B400C200F2204008303E22201030C000273017
:1002C400C1005508C3005408C200B8204108D50035
:1002D4004008D4002E302220E830C0000330C10092
:1002E4005508C3005408C200F2204008303E2220C2
:1002F400E830C0000330C1005508C3005408C200F0
:10030400B8204108D5004008D4006430C000003053
:10031400C1005508C3005408C200F2204008303E12
:1003240022200800C501C11F98299929A029C009C4
:10033400C109C00A0319C10AC501C50AC31FA329FB
:10034400A429AD29C209C309C20A0319C30A013089
:10035400FF007F08C506C601C70140084104031910
:10036400B429B529EC29C401C40AC32901300310F6
:10037400C00DC10DFF3E031DB9290130FF007F08E8
:10038400C407C11FC629C729B82901300310C60DE7
:10039400C70DFF3E031DC82941084302031DD4298C
:1003A40040084202031CD729D829DF294008C20289
:1003B4004108031CC303C302461401300310C10CDB
:1003C400C00CFF3E031DE0290130C402031DEB29CC
:1003D400EC29C72945080319F029F129F629C6098A
:1003E400C709C60A0319C70A4708C1004608C0005E
:0C03F4000800D901DA01DB0183017F2839
:02400E00EE3F83
:00000001FF
