:10000000FB2900308A000408840A8207003478340F
:100010002D3449344D34553433342D345334413434
:100020002D34413432342034763431342E3431346A
:080030002E3433340A3400348D
:10005800C0004008DB004E200800C0004008B00087
:100068006300301008009F149F183B283C2838284C
:100078001E08080045284108840001202C20013072
:10008800C107410884000120003A031D4C284D286F
:100098003F280800DB000A30DA0087105A280708D2
:1000A800FD395B18023887000314DB0C0830D900CF
:1000B800D90B5C28DA0B53280800CC01CD01481C69
:1000C800662867286D284A08CC070318CD0A4B080C
:1000D800CD0701300310CA0DCB0DFF3E031D6E285E
:1000E80001300310C90CC80CFF3E031D75284808D1
:1000F8004904031D8028812863284D08C9004C083D
:10010800C80008004008410403198B288C28B92826
:100118000130C400982801300310C00DC10DFF3E06
:10012800031D90280130C407C11F9B289C288F28D5
:1001380041084302031DA22840084202031CA528C7
:10014800A628AC284008C2024108031CC303C30206
:1001580001300310C10CC00CFF3E031DAD28013057
:10016800C402031DB828B9289C284308C1004208C6
:10017800C0000800703090048810861087149D17FE
:100188001D08FC3902389D001F081F39A0389F0040
:100198001F14133031200130C1003E201C309F0451
:1001A800013031203720D800E3309F05013031205D
:1001B8003720D6001F08E33908389F000130312066
:1001C8003720D7005808CE0056083A212C302C206A
:1001D8005808CE0057083A210A302C200130312027
:1001E80005303120D2280028C401C5014008410447
:1001F8000319FF28002935290130C6000C290130D0
:100208000310C00DC10DFF3E031D04290130C607B0
:10021800C11F0F291029032901300310C40DC50D72
:10022800FF3E031D112941084302031D1D294008F3
:100238004202031C2029212928294008C20241081A
:10024800031CC303C302441401300310C10CC00CC7
:10025800FF3E031D29290130C602031D3429352913
:1002680010294508C1004408C0000800D3005308FD
:10027800CF00D0014F08C8005008C9000030C200A4
:100288005030C3004E08D100D2015108C0005208B6
:10029800C10098214108CB004008CA0061204908E4
:1002A800D5004808D4001030C0002730C1005508D8
:1002B800C3005408C200F8204008303E2C201030FB
:1002C800C0002730C1005508C3005408C20086206A
:1002D8004108D5004008D4002E302C20E830C0005A
:1002E8000330C1005508C3005408C200F820400874
:1002F800303E2C20E830C0000330C1005508C30050
:100308005408C20086204108D5004008D400643053
:10031800C0000030C1005508C3005408C200F820CE
:100328004008303E2C200800C501C11F9C299D298A
:10033800A429C009C109C00A0319C10A0130C500AE
:10034800C31FA729A829AF29C209C309C20A0319CB
:10035800C30A0130C506C601C70140084104031994
:10036800B629B729EC290130C400C329013003108C
:10037800C00DC10DFF3E031DBB290130C407C11FBD
:10038800C629C729BA2901300310C60DC70DFF3E7B
:10039800031DC82941084302031DD429400842020D
:1003A800031CD729D829DF294008C2024108031CA9
:1003B800C303C302461401300310C10CC00CFF3E36
:1003C800031DE0290130C402031DEB29EC29C729CC
:1003D80045080319F029F129F629C609C709C60AEB
:1003E8000319C70A4708C1004608C0000800D90118
:0803F800DA01DB018301BE28DC
:02400E00EE3F83
:00000001FF
